:020000040800F2
:1000000000000220718A0008C18A0008C18A000825
:10001000C18A0008C18A0008C18A000800000000E7
:10002000000000000000000000000000C18A00087D
:10003000C18A000800000000C18A0008CD2800081D
:10004000C18A0008C18A0008C18A0008C18A000864
:10005000C18A0008C18A0008C18A0008C18A000854
:10006000C18A0008C18A0008C18A0008C18A000844
:10007000C18A0008C18A0008C18A0008C18A000834
:10008000C18A0008C18A0008C18A0008C18A000824
:10009000C18A0008C18A0008C18A0008C18A000814
:1000A000C18A0008C18A0008C18A0008C18A000804
:1000B000C18A0008C18A0008C18A0008C18A0008F4
:1000C000C18A0008C18A0008C18A0008C18A0008E4
:1000D000C18A0008C18A0008C18A0008C18A0008D4
:1000E000C18A0008C18A0008C18A0008C18A0008C4
:1000F000C18A0008C18A0008C18A0008C18A0008B4
:10010000C18A0008C18A0008C18A0008C18A0008A3
:10011000C18A0008C18A0008C18A0008C18A000893
:10012000C18A0008C18A0008C18A0008C18A000883
:10013000C18A0008C18A0008C18A0008C18A000873
:10014000C18A0008C18A0008C18A0008D9280008AD
:10015000C18A0008C18A0008C18A0008C18A000853
:10016000C18A0008C18A0008C18A0008C18A000843
:10017000C18A0008C18A0008C18A00080000000086
:08018000C18A0008C18A0008D1
:1001880010B5054C237833B9044B13B10448AFF3C9
:1001980000800123237010BD0C0100200000000026
:1001A800F08C0008084B10B51BB108490848AFF39C
:1001B80000800848036803B910BD074B002BFBD02B
:1001C800BDE81040184700BF0000000010010020E3
:1001D800F08C00080C0100200000000053B94AB957
:1001E800002908BF00281CBF4FF0FF314FF0FF3037
:1001F80000F07EB9ADF1080C6DE904CE00F006F808
:10020800DDF804E0DDE9022304B070472DE9F0478A
:100218008C460E460446089D002B50D18A4217464C
:100228006CD9B2FA82FEBEF1000F0BD0CEF12004D9
:1002380020FA04F401FA0EF644EA060C02FA0EF764
:1002480000FA0EF44FEA1749220CBCFBF9F01FFA2A
:1002580087F809FB10C642EA064600FB08F3B342DA
:1002680009D9F61900F1FF3280F02281B34240F239
:100278001F8102383E44F61AA2B2B6FBF9F309FB15
:10028800136642EA064403FB08F8A04509D9E419B5
:1002980003F1FF3280F00A81A04540F20781023B5A
:1002A8003C44C8EB040443EA00400021002D62D01E
:1002B80024FA0EF400232C606B60BDE8F0878B42B3
:1002C80007D9002D55D0002185E841000846BDE832
:1002D800F087B3FA83F1002940F09080B34202D34B
:1002E800824200F2F880841A66EB03060120B446C5
:1002F800002D40D085E81010BDE8F08712B901271D
:10030800B7FBF2F7B7FA87FEBEF1000F35D1F31B42
:100318004FEA17481FFA87FC0121B3FBF8F0220CBB
:1003280008FB103642EA06460CFB00F3B34207D935
:10033800F61900F1FF3202D2B34200F2CE80104625
:10034800F61AA2B2B6FBF8F308FB136642EA0644B3
:100358000CFB03FCA44507D9E41903F1FF3202D2D0
:10036800A44500F2B5801346CCEB040443EA0040F0
:100378009CE729462846BDE8F087CEF1200106FA19
:100388000EF307FA0EF720FA01F94FEA1748CE40A4
:1003980049EA0309B6FBF8FA4FEA194408FB1A665A
:1003A8001FFA87FC44EA06430AFB0CF29A4200FA59
:1003B8000EF40AD9DB190AF1FF3180F087809A42DE
:1003C80040F28480AAF1020A3B449B1A1FFA89F979
:1003D800B3FBF8F108FB113349EA034301FB0CF6C0
:1003E8009E4207D9DB1901F1FF326BD29E4269D9CF
:1003F80002393B449B1B41EA0A418EE7C1F1200EBA
:1004080022FA0EF48B40234320FA0EF706FA01F481
:100418004FEA134C26FA0EF63C43B6FBFCF9270CC0
:100428000CFB19661FFA83F847EA064609FB08F72A
:10043800B74202FA01F200FA01FA08D9F61809F1EE
:10044800FF3041D2B7423FD9A9F102091E44F61B39
:10045800A0B2B6FBFCF40CFB146640EA064704FBAA
:1004680008F8B84507D9FF1804F1FF3028D2B84575
:1004780026D9023C1F4444EA0940C8EB0707A0FB01
:1004880002894F4544464E4614D329D065B3BAEB8A
:10049800040367EB060707FA0EFECB40CF404EEA8F
:1004A800030385E888000021BDE8F0871346F8E6D5
:1004B8001046E0E6B8EB020469EB03060138E5E70D
:1004C8000446D8E7114695E78146C0E78A467CE7A7
:1004D800023B3C4448E708460AE702383E442FE717
:1004E800C245E7D33E46D1E72946BDE8F08700BFBD
:1004F800704700BF00230BE003F5A97200EB8202EE
:10050800526812F4004F01D198B270470133DBB240
:100518000A2BF1D94FF6FF70704700BF10B584B0B1
:10052800BDF8204002949DF81C4001949DF81840A5
:10053800009403F01DFD002004B010BD08B503F0C1
:1005480031FD002008BD00BF38B504460D46FFF751
:10055800D1FF4FF6FF73984206D045F4004500F5E9
:10056800A97304EB83046560C0B238BD0A2907D8B3
:1005780001F5A97100EB81014B68C3F30E034B60D1
:1005880000207047114B9B7BDBB2012B1AD830B48B
:100598000E4CA57BEDB200236355A57B04EB8505C6
:1005A8006860A07B20440273A27BD2B2501CC0B208
:1005B800A07330320A703A224A702F228A70CB70A8
:1005C800184601E00120704730BC70472801002020
:1005D80008B50022FFF7D6FF08BD00BF0E4B9B7B76
:1005E80013F0FF0F13D00378303BDBB20A4A02EB5B
:1005F800830252686AB1084A02EB8301002048600E
:1006080013441873937B013BDBB29373704701204B
:1006180070470120704700BF2801002008B500215D
:10062800FFF7DCFF08BD00BF836B1A68D36B43F488
:100638008073D363704700BF79B138B50D4604465F
:10064800016D0904006803F0D3F848B90021206857
:1006580002F076FF2860002038BD4FF00060704738
:1006680038BD00BFF0B587B0044629B9836B43F0A5
:1006780000638363012073E015461E460A4690F81E
:100688003430DBB2012B68D100238363AB19C16D11
:100698008B4205D9836B43F00073836301205FE0CD
:1006A800032380F8343003680021D9620068C36BE3
:1006B80043F49573C363E36B2A48D863E36B2A4812
:1006C800D864E36B196521687702BB088031E06B59
:1006D80000F0B6FB0122254B1A60636C934200D0F0
:1006E8006D024FF0FF33009301979023029302238A
:1006F800039300230493012305936946206802F0BD
:10070800D3FF4FF40071206802F0E0FF50B1236876
:1007180040F2FF519963A36B0343A363012084F85C
:1007280034001DE0012E06D9822323632946206860
:1007380002F0FCFF05E0812323632946206802F0CC
:10074800DDFF60B1236840F2FF529A63A36B184340
:10075800A063012084F8340002E0022000E00020B9
:1007680007B0F0BD99080008250900088C852542C6
:100778002DE9F04186B0044629B9836B43F0006344
:100788008363012076E015461E460F4690F8343004
:10079800DBB2012B6DD1002383639319C26D9342A1
:1007A80005D9836B43F000738363012062E0032360
:1007B80080F8343003680022DA620168CB6B43F0BA
:1007C8001A03CB63036C2D49D963036C2C49D96494
:1007D800036C1A65436C012B00D06D024FF4007155
:1007E800206802F073FF034650B1226840F2FF51BF
:1007F8009163A06B1843A063012084F8340039E0AA
:10080800012E06D9A02323632946206802F0BEFFE3
:1008180005E0902323632946206802F09FFF50B12A
:10082800236840F2FF529A63A36B1843A063012028
:1008380084F834001EE04FF00108124BC3F8008022
:1008480022687602B30880323946206C00F0F8FA44
:100858004FF0FF33009301969023029300250395F0
:100868000495CDF814806946206802F01DFF2846DB
:1008780000E0022006B0BDE8F08100BF31060008A4
:10088800250900088C852542704700BF704700BFC6
:1008980010B5846B236B822B0AD1206802F08EFF7F
:1008A800034628B1A06B1843A0632046FFF7EEFF6C
:1008B8002268D36A23F00803D362236840F2FF5208
:1008C8009A63012384F834302046FFF7DDFF10BD1A
:1008D800436C0B60836C4B60C36C8B60036DCB60A7
:1008E800436D0B61836D4B61C36D8B61036ECB618F
:1008F8000020704710B582B0044602A9002341F8D1
:10090800043DFFF799FE18B10346A06B1843A06396
:100918000198C0F3432002B010BD00BF10B5846B2E
:10092800E36B5B6D012B03D0236C5B6D012B1CD13A
:10093800236840F2FF529A632268D36B23F49D73B5
:10094800D363A36B43F08043A3632046FFF7D2FF32
:100958000538C0B2012805D8206802F02FFFA36B24
:100968001843A063012384F834302046FFF78EFF34
:1009780010BD00BF08B513460A4601460248FFF7F6
:1009880071FE00B1012008BDB003002008B5134670
:100998000A4601460248FFF7EBFE00B1012008BDF8
:1009A800B003002008B50348FFF7A4FF043818BFB8
:1009B800012008BDB003002008B501460148FFF733
:1009C80087FF08BDB003002008B5072001F04CFEE2
:1009D800002211466FF00B0001F058FE002211466C
:1009E8006FF00A0001F052FE002211466FF0090074
:1009F80001F04CFE002211466FF0040001F046FEA3
:100A0800002211466FF0030001F040FE002211465B
:100A18006FF0010001F03AFE002211464FF0FF305E
:100A280001F034FE08BD00BF0020704708B5212240
:100A38000274202242740022428282820722C282E9
:100A480001F078F908BD00BF08B5A122027421227F
:100A580042740022428282820722C28201F06AF92D
:100A680008BD00BF38B50446D0F84435D9694031CF
:100A7800FFF7EAFF054620B9D4F89435022120464D
:100A88009847284638BD00BF38B50546D0F84435E4
:100A9800DC69217839B1FFF751FD21782846FFF745
:100AA80065FD00232370217B41B12846FFF746FDF1
:100AB800217B2846FFF75AFD00232373617B41B150
:100AC8002846FFF73BFD617B2846FFF74FFD0023D3
:100AD8006373D5F84435D86928B108F01DF8D5F8FE
:100AE80044350022DA61002038BD00BF70B584B0FB
:100AF800044601230222114606F0E8FAFF2800F016
:100B08009F8006460146204606F0D6FAD4F844559A
:100B1800502007F0F9FFE861D4F84435DD69322345
:100B280003FB064393F8483313F0800F06D06B702D
:100B3800322303FB0646B6F84A336B8169782046B0
:100B4800FFF702FD0146287094F81C336A7868891B
:100B580002900320019094F81D0300902046FFF7AF
:100B6800DDFC00222978204603F054FA00231A46B7
:100B78000A21204606F0AAFAFF2863D0322303FB95
:100B8800004393F8483313F0800F07D0EB733223F8
:100B980003FB0043B3F84A336B8306E0AB7332239D
:100BA80003FB0043B3F84A332B83322303FB004390
:100BB80093F8503313F0800F07D0EB73322303FB05
:100BC8000040B0F852336B8306E0AB73322303FB6B
:100BD8000040B0F852332B83A97B2046FFF7B4FCC2
:100BE8006873E97B2046FFF7AFFC287394F81C3341
:100BF800AA7B697B288B02900226019694F81D0334
:100C080000902046FFF78AFC94F81C33EA7B297B86
:100C1800688B0290019694F81D0300902046FFF718
:100C28007DFC002685F84C603246697B204603F03F
:100C3800F1F93246297B204603F0ECF9304602E010
:100C4800022000E0022004B070BD00BF704700BF62
:100C580030B583B00546D0F84435DC6994F84D309A
:100C6800012B02D0022B18D03AE0606A228B904206
:100C780007D9637BE16901200090284607F0ACFEA4
:100C880007E0637BE1690122009282B2284607F0FF
:100C9800A3FE022384F84D3022E0617B03F0AEF915
:100CA800012818D1626A238B9A4205D9D21A626246
:100CB800E2691344E36101E000236362636A1BB1E4
:100CC800012384F84D300BE0002384F84D3028468A
:100CD800FFF7BCFF04E0022802D1012384F84D305D
:100CE80003B030BD704700BF38B50546D0F844356D
:100CF800DC6994F84E30032B02D0042B09D038BDA0
:100D0800237B628B216A07F07DFE042384F84E3032
:100D180038BD217B03F072F9012819D1217B2846BF
:100D280003F020F980B2A36A98420BD0628B9042FC
:100D380008D91B1AA362236A18442062032384F883
:100D48004E3038BD002384F84E302846FFF7CAFFDE
:100D580038BD00BF704700BF38B50546D0F84435E8
:100D6800DC6994F84C30042B04D8DFE803F046051E
:100D780015363D00012038BDA16CFFF757FE20B99C
:100D8800022384F84C30012038BD012837D00423D1
:100D980084F84C30012038BD04F14001FFF754FEBF
:100DA800A0B9002384F84C30636C23F07F42A16C17
:100DB8004B6823F07F439A4223D1226C0B689A42F6
:100DC80021D12846FFF7C6FF012038BD01281CD0D5
:100DD800042384F84C30012038BDFFF739FF28463A
:100DE800FFF782FF012038BD002101F05BF870B9E0
:100DF800002384F84C30012038BD002038BD012084
:100E080038BD012038BD012038BD012038BD012082
:100E180038BD00BF30B405682C6824F480242C60E9
:100E2800046863608368402B04D103689A60036890
:100E3800D96003E0036899600368DA6030BC7047E2
:100E480038B5856D90F83440012C31D0012480F8F4
:100E5800344090F83540E4B2012C24D104460220F5
:100E680084F83500002060652046FFF7D3FFE26D67
:100E78003F239340AB602268136843F01603136066
:100E88002268536943F080035361236C23B12268BD
:100E9800136843F0080313602268136843F00103E2
:100EA8001360002038BD002380F83430022038BD9C
:100EB800022038BDF8B507683A6AC2F34343C2F363
:100EC8000A14022B30D102F00F056CB305EB850232
:100ED800D3000344596C39B306462246384604F019
:100EE80015FEAA002A44D30033445A6C22445A649B
:100EF800DA6C2244DA6407EB4513D3F810150B4A71
:100F08000A408AB1D3F8002522F0804242F000421C
:100F1800C3F80025AB005919CA00324492F8503082
:100F280083F0010382F85030F8BD00BF0000F81FBD
:100F3800F0B585B09DF828609DF82C70BDF830E0BC
:100F480090F89042012C29D00546012085F890029E
:100F5800880000EB010C4FEACC042C4484F83830AC
:100F6800A4F840E084F8391084F83F7002F07F0C50
:100F780084F83AC04FEAD21C84F83BC00844C40045
:100F88002C4484F83C60CDF808E001970096286866
:100F980004F0D4FE002385F8903200E0022005B06A
:100FA800F0BD00BF90F89032012B0BD010B504466D
:100FB800012380F89032006805F082F8002084F858
:100FC800900210BD02207047002836D0F0B58BB0D3
:100FD8000646032380F8913202F00EFF306804F0D1
:100FE8003DFD344654F810EB6D460FCC0FC50FCCC1
:100FF8000FC594E8030085E80300371D97E80E0045
:10100800704604F0E9FC0121306804F02DFD3446F7
:1010180054F810EB6D460FCC0FC50FCC0FC594E8F4
:10102800030085E8030097E80E00704604F0A6FD6B
:10103800012386F89132002001E0012070470BB0AF
:10104800F0BD00BFF8B59DF81870BDF820609DF898
:1010580024E08D000D44EC00044484F83B2084F81F
:101068003F303FB901EB8105EC000444032584F8C7
:10107800425006E001EB8105EC000444022584F8A7
:101088004250032B00F2AA80DFE803F002A1357278
:10109800012F40F0A380002A40F0A08036B901EB70
:1010A8008102D3000344012283F8512001EB81021D
:1010B800D300034493F851303BB901EB8102D300CC
:1010C8000344002283F8422006E001EB8102D300AA
:1010D8000344022283F8422001EB8102D300034437
:1010E80093F85C30022B79D001EB8102D3000344E2
:1010F80083F83DE072E022BB01EB8102D300034498
:1011080093F851303BB901EB8102D300034400222C
:1011180083F8422006E001EB8102D3000344022257
:1011280083F8422001EB8102D300034493F85C303A
:10113800022B53D001EB8102D300034483F83DE036
:101148004CE001EB8102D300034493F850303BB9E3
:1011580001EB8102D3000344002283F842203DE0E2
:1011680001EB8102D3000344022283F8422035E0D8
:10117800B2B901EB8102D300034493F851303BB973
:1011880001EB8102D3000344002283F8422025E0CA
:1011980001EB8102D3000344022283F842201DE0C0
:1011A80001EB8102D300034493F850303BB901EBC3
:1011B8008102D3000344002283F842200EE001EBB1
:1011C8008102D3000344022283F8422006E001EBA7
:1011D8008102D3000344002283F842208C00621865
:1011E800D3000344079A5A649E64002283F85C2063
:1011F800DA6483F8391083F85D202144CB0003F1C9
:101208003801027C0144006804F00CFEF8BD00BF00
:1012180030B583B005460468D4F840340193D4F857
:1012280040340093009B23F02E030093019B13F09E
:10123800020F0DD0019B13F0010F05D0A36923F015
:101248000053A36102F012FE009B43F002030093D7
:10125800019B13F0080F30D0009B43F00803009364
:10126800019B13F0040F1DD0AB69022B0FD1019B1A
:1012780003F4C023B3F5802F04D10221286804F0B9
:10128800F3FC0BE00121286804F0EEFC06E0EB68B3
:10129800032B03D14EF66022C4F80424284602F03A
:1012A800E5FD0AE0D4F8403423F02E03C4F84034B6
:1012B8002A68936943F000539361019B13F0200F50
:1012C80003D0009B43F020030093009BC4F84034F4
:1012D80003B030BDF8B506460D46076807EB411761
:1012E80007F5A064A36813F0040F06D00423A360D5
:1012F800E36843F00203E36034E0A36813F0200FCF
:1013080002D02023A3602DE0A36813F0080F12D0A9
:10131800E36843F00203E36001EB8102D300034476
:10132800052283F85D201023A3600823A3600068CA
:1013380004F0C6FE16E0A36813F4806F12D0E368C9
:1013480043F00203E360006804F0BAFE1023A360D0
:1013580005EB8502D3003344082283F85D204FF45F
:101368008063A360A36813F4007F0BD0E36843F0A5
:101378000203E3602946306804F0A2FE4FF40073CC
:10138800A360F8BDA36813F0010F46D0336963B1B9
:10139800AB005919CA003244926C2169C1F3120199
:1013A800511A2B44DA003244D164AA002A44D300EB
:1013B8003344012283F85D2000219965A26093F8E7
:1013C8003F300BB1022B0AD1E36843F00203E3601C
:1013D8002946306804F074FE1023A36012E0032B42
:1013E80010D1D7F8003543F00053C7F8003505EBA6
:1013F8008502D3003344012283F85C202946304615
:1014080002F040FDAB005919CA00324492F850303E
:1014180083F0010382F85030F8BDA36813F0020F7F
:1014280050D0E36823F00203E36005EB8502D300A4
:10143800334493F85D30012B07D105EB8502D300C7
:101448003344012283F85C202FE0052B07D105EBFC
:101458008502D3003344052283F85C2025E0062B5F
:1014680001D0082B21D1AA002A44D30033449A6D15
:10147800511C9965032A09D9AA002A44D300334488
:1014880000229A65042283F85C2006E005EB8502B9
:10149800D3003344022283F85C20D7F8003523F0C8
:1014A800804343F00043C7F800350223A36005EBEF
:1014B8008502D300334493F85C202946304602F075
:1014C800E1FCF8BDA36813F0800F17D0E36843F080
:1014D8000203E360AB005919CA003244916D01312F
:1014E80091652B44DA003244062382F85D302946A0
:1014F800306804F0E5FD8023A360F8BDA36813F00D
:10150800100F29D005EB8502D300334493F83F3000
:10151800032B07D1E36843F00203E36029463068F0
:1015280004F0CEFDAA005119CB003344032183F8FF
:101538005D101023A360154405FA01F31E4496F8C4
:101548003F300BB1022B07D1D7F8003523F0804389
:1015580043F00043C7F80035F8BD00BFF8B504688C
:1015680004EB411404F5A064A36813F0040F06D03B
:101578000423A360E36843F00203E360F8BD0E466A
:101588000546A36813F0200F1FD02023A36001EBAA
:101598008102D300034493F83D30012B40F02581AC
:1015A8008F007A18D3000344042283F85D20E3688F
:1015B80043F00203E360006804F082FDB919C80033
:1015C8002844022380F85C30F8BDA36813F0400F6C
:1015D80016D08B005918CA000244042182F85D1005
:1015E8003344DA00024400239365E36843F00203BE
:1015F800E3603146006804F063FD4023A360F8BD52
:10160800A36813F4007F0AD0E36843F00203E360A1
:10161800006804F055FD4FF40073A360F8BDA3689B
:1016280013F0010F14D08F007A18D300034400225E
:101638009A65E36843F00203E360006804F040FD44
:101648000123A360B919C800284480F85D30F8BDAB
:10165800A36813F0080F10D00823A360E36843F0D1
:101668000203E360006804F02BFD06EB8601C80066
:101678002844052380F85D30F8BDA36813F0100FE7
:1016880015D08F007A18D300034400229A65E368C6
:1016980043F00203E360006804F012FDB919C800C2
:1016A8002844032380F85D301023A360F8BDA368A5
:1016B80013F0800F10D0E36843F00203E360006882
:1016C80004F0FEFC06EB8601C8002844062380F8D7
:1016D8005D308023A360F8BDA36813F4806F13D036
:1016E800E36843F00203E360006804F0E9FC1023B8
:1016F800A3604FF48063A36006EB8601CB002B4404
:10170800082283F85D20F8BDA36813F0020F6CD09F
:10171800E36823F00203E36001EB8102D300034492
:1017280093F85D30012B15D18A000A44D300034495
:10173800012283F85C2093F83F30022B49D18A00BC
:101748000A44D300034493F8512082F0010283F83D
:1017580051203EE0032B07D101EB8102D300034463
:10176800022283F85C2034E0042B0AD18A000A4460
:10177800D3000344022283F85C20002283F83D2032
:1017880027E0052B07D101EB8102D3000344052292
:1017980083F85C201DE0062B01D0082B19D1B2007C
:1017A8003244D3002B449A6D511C9965032A09D9F8
:1017B800B2003244D3002B4400229A65042283F8F5
:1017C8005C2006E006EB8602D3002B44022283F855
:1017D8005C200223A36006EB8602D3002B4493F817
:1017E8005C203146284602F04DFBF8BDF8B50446AA
:1017F8000568284604F0A0F9012840F09480206884
:1018080004F096F9002800F08E80206804F090F922
:1018180010F4001F03D023684FF400125A612068A7
:1018280004F086F910F4801F03D023684FF4801267
:101838005A61206804F07CF910F0806F03D02368A7
:101848004FF080625A61206804F072F910F0020FBC
:1018580002D0236802225A61206804F069F910F066
:10186800005F10D0D5F8403423F02E03C5F840347B
:10187800204602F001FB0121206804F0F5F92368F5
:101888004FF000525A61206804F052F910F0807F3E
:1018980002D02046FFF7BCFC206804F049F910F09C
:1018A800080F05D0204602F0DBFA236808225A61A7
:1018B800206804F03DF910F0007F21D0206804F082
:1018C800EFFB0746002614E00123B3401F420FD068
:1018D80005EB4613D3F8003513F4004F04D0F1B2EA
:1018E8002046FFF7F7FC03E0F1B22046FFF736FE8B
:1018F8000136A3689E42E7D323684FF000725A610D
:10190800206804F015F910F0100F0CD022689369C4
:1019180023F0100393612046FFF7CCFA22689369FD
:1019280043F010039361F8BD38B590F89032012B5D
:101938000ED00446012580F89052006804F088F81B
:101948002946206804F0CAF9002084F8900238BDBE
:10195800022038BD90F89032012B0BD010B5044608
:10196800012380F89032006804F0CAFC002084F853
:10197800900210BD0220704708B5006804F094F981
:1019880008BD00BF01EB8101CB00184490F85C0052
:10199800704700BF01EB8101CB001844C06C704751
:1019A80008B5006804F0C4F908BD00BF08B50068B0
:1019B80004F0B4F908BD00BF10B40B7803704B787D
:1019C80043708B78CC7803EB042343800B79037145
:1019D8004B7943718B798371CB79C371082A16D9F6
:1019E8000B7A4A7A03EB022303818B7ACA7A03EBD8
:1019F800022343810B7B4A7B03EB022383818B7B8E
:101A08008373CB7BC3730B7C03744B7C43745DF88B
:101A1800044B70470B7803704B7843708B78837056
:101A2800CB78C3700B7903714B7943718B798371D0
:101A3800CB79C3710B7A0372704700BF0B780370C0
:101A48004B7843708B788370CB78C3700B794A7965
:101A580003EB022383808B79837170474378032BD0
:101A680014D110B40378023B9A42A8BF1A4692B226
:101A7800002305E0C418A47801F8014B02339BB297
:101A88009342F7D300230B705DF8044B704700BFF7
:101A980030B583B00446037E013B0A2B00F2CE80AA
:101AA800DFE803F0060F313D4E5C768295A3B8005F
:101AB800427900F1100106F057FF02232376012036
:101AC800C9E0417902F09AFA012815D1237C03F084
:101AD8008003E28A3AB113B103232376BBE00523DE
:101AE80023760120B7E01BB1092323760120B2E059
:101AF800072323760120AEE0042840F0A1800B23C1
:101B080023760120A7E0D0F88835C381037982893C
:101B1800816806F051FF0423237601209BE00179B8
:101B280002F06CFA012801D109232376052800F078
:101B38008980042840F088800B23237601208AE0DE
:101B48004379828901250095816806F01FFFD4F842
:101B58008835E3810623237628467CE0417902F024
:101B68004DFA012802D10723237674E0052803D112
:101B78000C23237603206EE0022803D10523237665
:101B8800012068E0042861D10B232376022062E05B
:101B980003790022114606F00FFFD4F88835E38157
:101BA80008232376012056E0017902F027FA01285C
:101BB80003D10D23237600204DE0042803D10B2305
:101BC8002376012047E0052842D0012043E04379ED
:101BD800012500950022114606F0D8FED4F8883574
:101BE800E3810A232376284635E0417902F006FA94
:101BF800012803D10D23237600202CE0022803D1ED
:101C080009232376012026E0042823D10B232376F9
:101C1800012020E0437E0133DBB24376022B05D856
:101C280002F070F901202076A07014E0D0F8943505
:101C3800062198470023637602200CE001200AE081
:101C4800012008E0032006E0012004E0012002E072
:101C5800032000E0012003B030BD00BF02780B88EC
:101C680013440B8003781844704700BF2DE9F043F4
:101C780083B00C460B7803704B7843708B78C97827
:101C880003EB012343802379037163794371A379BB
:101C98008371E379C371237A0372092A47D9054608
:101CA8000923ADF8063000263AE00DF1060120467A
:101CB800FFF7D4FF04464378042B31D1B1463220D4
:101CC80000FB06F00830284421460230FFF7A2FE48
:101CD800002717E00DF106012046FFF7BFFF044675
:101CE8004378052B0ED108F10100322303FB09F3D9
:101CF80003EBC0000830284421460430FFF79EFE5D
:101D080001377FB2B846322303FB09539B7B9F42BE
:101D180004DA6A88BDF806309A42DBD8013676B212
:101D2800092E04DC6A88BDF806309A42BDD803B093
:101D3800BDE8F0838378012B02D0022B07D016E090
:101D480081608281012303760222827010E010B53F
:101D58000446FFF79DFE034620B90122A270002227
:101D6800227607E0022805D10122A27002E00123B1
:101D780018467047184610BD38B5BDF8105084781D
:101D8800012C11D161F07F04047406214174428250
:101D980002F47F44B4F5407F03D140F209428282C5
:101DA80001E000228282C5822A461946FFF7C2FF57
:101DB80038BD00BFF0B583B0044600F58E750E46F9
:101DC80000912B464FF480720021FFF7D5FF07469C
:101DD80028B93246294604F54870FFF7EDFD384624
:101DE80003B0F0BDF0B583B004460E4600F11C0503
:101DF80000912B464FF400720021FFF7BDFF074604
:101E080028B93246294604F23230FFF72FFF384608
:101E180003B0F0BDF0B583B017461D4600F58E74CB
:101E28000093234641F440720021FFF7A5FF0646C0
:101E380020B92A4639462046FFF710FE304603B03F
:101E4800F0BD00BF08B58378012B06D100230374C9
:101E58000522427441828382C38200221146FFF721
:101E680069FF08BD08B58378012B06D100230374E8
:101E78000922427441828382C38200221146FFF7FD
:101E880059FF08BD08B58378012B06D103740B23CD
:101E98004374428281820023C38200221146FFF7E5
:101EA80049FF08BD08B58378012B07D102230374C5
:101EB80001234374002343828182C3820022114696
:101EC800FFF738FF08BD00BF054B064A1A6000221D
:101ED8005A609A60DA601A615A619A61704700BF65
:101EE800B0030020002C01402DE9F0418CB0002403
:101EF8000194494B1A6B42F010021A631A6B02F0F4
:101F080010020192019A02941A6B42F080021A633D
:101F18001A6B02F080020292029A03941A6B42F042
:101F280004021A631A6B02F004020392039A0494DF
:101F38001A6B42F001021A631A6B02F00102049252
:101F4800049A05941A6B42F002021A631A6B02F0A3
:101F580002020592059A06941A6B42F008021A6367
:101F68001B6B03F008030693069B2C4E22460821A0
:101F7800304603F0FFF8DFF8B480012211464046EE
:101F880003F0F8F8264F22464FF21001384603F0C6
:101F9800F1F8082307930125089509940A9407A9DD
:101FA800304603F007F80795089509940A9407A99D
:101FB800404602F0FFFF0795DFF87480CDF82080D7
:101FC800099407A9174802F0F5FF0423079308941A
:101FD800099407A9144802F0EDFF4FF21003079384
:101FE800089509940A9407A9384602F0E3FF2023CC
:101FF80007930894099407A9384602F0DBFF0223E7
:102008000793CDF82080099407A9304602F0D2FF43
:102018000CB0BDE8F08100BF00380240001002405B
:10202800000C024000000240000402400008024088
:1020380000001210FEE700BF00B595B00021019125
:10204800294B1A6C42F080521A641B6C03F08053BF
:102058000193019B0291254B1A6842F480421A6051
:102068001B6803F480430293029B012308934FF4F7
:102078008033099302230E934FF480020F920422B7
:1020880010924822119212930323139308A801F087
:10209800C7FB18B1C5211648FFF7CCFF0F230393E0
:1020A80002210491002305934FF48052069207936E
:1020B80003A801F0EBFD18B1D3210D48FFF7BAFFD3
:1020C80001F094FE0B4BA3FB0030800900F01CFBD1
:1020D800042000F02FFB002211464FF0FF3000F0E3
:1020E800D5FA15B05DF804FB0038024000700040D6
:1020F8000C8D0008D34D621030B589B003F07CF820
:10210800FFF79AFFFFF7F0FEFFF7DEFE00F070F82A
:1021180005F04CF901AC2E4D0FCD0FC495E8030026
:1021280084E8030001224FF400412A4803F022F812
:1021380029492A48FEF74CFA0546002418E00122EE
:102148004FF40041234803F015F8002300E0013361
:10215800234A9342FBDD00224FF400411D4803F05F
:1021680009F8002300E001331D4A9342FBDD0134E6
:10217800AC42E4DB18491948FEF72AFA08BB0022EA
:102188001549184806F04AF9D8B901224FF4005108
:10219800104802F0EFFF0A221349144806F06EF9BE
:1021A80078B9124C07AB182201A9204606F070FA3C
:1021B800204606F097FB01224FF48041054802F0C3
:1021C800D9FF0548FEF72AFA05F01EF9FCE700BF1B
:1021D800248D0008000C0240AC030020408D00084C
:1021E8007F841E007C010020188D00083404002024
:1021F80008B506490648FEF7EBF9064B187006497C
:102208000648FEF7E5F9064B187008BD6C06002075
:10221800408D00086406002068060020848D0008B0
:10222800300F002000207047D0F84435DB699A78D9
:10223800062A08D1D0F88825196A521A998B8A4239
:1022480001D304229A700020704700BF0B780370F6
:102258004B7843708B78CA7803EB022343800B7961
:1022680003714B7943718B798371CB790A7A03EBCC
:1022780002230381704700BF38B50446D0F84435BF
:10228800DD69697839B1FEF759F969782046FEF7B2
:102298006DF900236B70297841B12046FEF74EF99D
:1022A80029782046FEF762F900232B70D4F84435CC
:1022B800D86908B106F030FC002038BDF0B585B00B
:1022C8000446D0F84415FF230122097904F0FEFEE4
:1022D800FF2800F08D800146204604F0EDFED4F87A
:1022E8004455342006F010FCE861D4F84435DD6923
:1022F8000723AB7094F81F33322202FB034393F891
:102308004333012B02D13D4B2B6303E0022B71D1E8
:102318003B4B2B630023AB706B7194F81F33322255
:1023280002FB034393F84833AB7694F81F3302FB60
:102338000343B3F84A332B8394F81F3302FB034358
:1023480093F84C33AB83092B01D80A23AB8394F859
:102358001F33322202FB034393F84073052F28BF33
:102368000527002640E094F81F13731C322202FB55
:1023780001F202EBC303234493F8401311F0800FDA
:1023880018D029712046FEF7DFF80146687094F8E6
:102398001C332A79288B02900320019094F81D039E
:1023A80000902046FEF7BAF800226978204601F02E
:1023B80031FE17E0E9702046FEF7C6F8014628709E
:1023C80094F81C33EA78288B02900320019094F843
:1023D8001D0300902046FEF7A1F800222978204628
:1023E80001F018FE0136F6B2BE42BCD3002002E06E
:1023F800022000E0022005B0F0BD00BF1D890008E2
:102408006556000800B583B0009100F58E734FF44F
:1024180008520121FFF7B0FC03B05DF804FB00BFD0
:1024280000B583B0009100F58E734FF4045201217A
:10243800FFF7A2FC03B05DF804FB00BF10B5212430
:1024480004740A24447442EA0122428200218182EF
:10245800C1820A46FFF76EFC10BD00BF38B5A12542
:1024680005740125457442EA0122428200228282D3
:102478009DF8102092B2C2821946FFF75BFC38BD66
:1024880008B5212202740B224274B1FA81F149097C
:10249800418200218182C1820A46FFF74BFC08BDB8
:1024A80038B50446D0F84435DD696B79052B36D844
:1024B800DFE803F00335110319280921FFF7B0FFFE
:1024C80078BB04F58E7105F12600FFF7BFFE0223E5
:1024D8006B71012038BDE98DFFF794FF18BB042309
:1024E8006B71012038BD00221146FFF7A7FF18B90C
:1024F80005236B71012038BD032816D105236B71A4
:10250800012038BD0021FFF7BBFF80B901236B71A3
:10251800D4F89435022120469847002038BD012080
:1025280038BD012038BD012038BD012038BD01204B
:1025380038BD00BF00238380C3808372028101609D
:10254800704700BF837A43BBF0B401238372002431
:102558001CE085886B1CC688B34203D00789BB4240
:1025680004D11EB900238372204614E003684E1C70
:1025780009785955838801339BB2838001898B423E
:1025880001D1002383800134A4B231469442E0D3C0
:10259800002383721046F0BC7047002383721046F4
:1025A800704700BF704700BF30B583B00546D0F80C
:1025B8004435DC69A378062B52D8DFE803F004061B
:1025C800515121192F00236B98476369227E00928D
:1025D800002201212846FFF741FF002840D1228B25
:1025E800616904F10800FFF7ADFF0523A37037E028
:1025F800D0F8883513F0010F32D00423A3702FE0F0
:102608006378227E616906F00DFA0623A370D5F877
:1026180088352362002384F8243021E0617801F0B2
:10262800EDFC01280FD194F82430CBB9228B6169D5
:1026380004F10800FFF786FF012384F824302846B8
:10264800FFF7B0FF0CE06178284601F0D7FC0528B9
:1026580006D1A17E2846FFF725FC08B90423A370FC
:10266800002003B030BD00BF074AD36823F4E063FD
:102678001B041B0C000200F4E060184340F0BF602C
:1026880040F40030D060704700ED00E030B4164BE5
:10269800DB68C3F30223C3F10704042C28BF042416
:1026A8001D1D062D01D9DD1E00E00025012303FABA
:1026B80004F4013C2140A940AB40013B1A400A43C5
:1026C800002806DA00F00F001201D2B2074B1A54A4
:1026D80007E01201D2B200F1604000F5614080F8D5
:1026E800002330BC704700BF00ED00E014ED00E0AF
:1026F800420900F01F00012303FA00F0014B43F8E0
:102708002200704700E100E00138B0F1807F0AD272
:10271800064B5860F021064A82F823100020986082
:1027280007221A6070470120704700BF10E000E0E0
:1027380000ED00E0042805D1054A136843F00403BE
:1027480013607047024A136823F00403136070474C
:1027580010E000E0704700BF08B5FFF7FBFF08BDB9
:1027680008B50122064B1A70FEF71CF920B9044A75
:10277800137803F0FE031370014B187808BD00BFEF
:102788004000002008B5FFF7EBFF08BD08B5FFF7CC
:10279800E7FF08BD10B5084611460024174A146023
:1027A8001A46FEF7E7F810BB02F048FD0446134B43
:1027B8001B6833B902F042FD001B47F22F539842C1
:1027C800F5D90E4B1B68A3B100220C4B1A6002F01E
:1027D80035FD044602E0FEF7E5F860B102F02EFD93
:1027E800001B47F22F539842F5D9012010BD012054
:1027F80010BD012010BD002010BD00BF3801002011
:1028080010B5084611460024174A14601A46FEF708
:10281800BDF810BB02F012FD0446134B1B6833B918
:1028280002F00CFD001B47F22F539842F5D90E4BCE
:102838001B68A3B100220C4B1A6002F0FFFC04468F
:1028480002E0FEF7AFF860B102F0F8FC001B47F2B7
:102858002F539842F5D9012010BD012010BD012049
:1028680010BD002010BD00BF3C010020144B1B7898
:1028780013F0010F1FD110B588B0144603291CD8D6
:10288800DFE801F002040B12002017E06846FEF7AB
:1028980093F8069B2360002010E06846FEF78CF84A
:1028A800079B2380002009E06846FEF785F8079B10
:1028B8002360002002E003207047042008B010BD08
:1028C8004000002008B502F0B1FCFFF745FF08BD45
:1028D80008B50248FEF78AFF08BD00BF340F002084
:1028E80070B4002430E02546322303FB040393F838
:1028F8004133062B26D122E00E464B1C322202FB26
:1029080005F202EBC303034493F94033002B13DAB7
:102918004B1C322202FB05F202EBC3030344B3F85B
:1029280042334BB1013602EBC606064496F84133F2
:1029380003F00303032B0BD00131C9B200E00021DF
:102948000429D9D90134E4B2092CCCD9FF2000E0FC
:10295800084670BC704700BF70B400242FE02546BD
:10296800322303FB040393F84133062B25D121E0DE
:102978001E465A1C322101FB05F101EBC20202443A
:1029880092F94023002A12DB5A1C322101FB05F17F
:1029980001EBC2020244B2F8422342B1013601EB14
:1029A800C606064496F8412312F0020F0BD10133F4
:1029B800DBB200E00023042BDAD90134E4B2092C9D
:1029C800CDD9FF2000E0184670BC704770B40024D1
:1029D8002FE02546322303FB040393F84133062BEB
:1029E80025D121E00E464B1C322202FB05F202EBF8
:1029F800C303034493F94033002B12DA4B1C3222F1
:102A080002FB05F202EBC3030344B3F8423343B1BC
:102A1800013602EBC606064496F8413313F0020F5E
:102A28000BD10131C9B200E000210429DAD90134FF
:102A3800E4B2092CCDD9FF2000E0084670BC7047ED
:102A4800002070470020704770B50546D0F844351F
:102A5800DC6941F62D53E15C49B1FDF76FFD41F6A4
:102A68002D56A15D2846FDF781FD0023A35541F6AB
:102A78002C53E15C51B12846FDF760FD41F62C5618
:102A8800A15D2846FDF772FD0023A35541F62E539C
:102A9800E15C51B12846FDF751FD41F62E56A15D86
:102AA8002846FDF763FD0023A355D5F84435D869BA
:102AB80028B106F031F8D5F844350022DA61002053
:102AC80070BD00BF2DE9F04784B0044601231A46C3
:102AD800062104F0FBFAFF2800F0B1800646014603
:102AE800204604F0E9FA2046FFF7FAFE0746D4F834
:102AF800445542F2D01006F007F8E861D4F844359E
:102B0800DD690137322000FB06F606EBC7072744CC
:102B180097F8401341F6315A05F80A10B7F84233CE
:102B280041F6365925F809302046FDF70DFD0146D6
:102B380041F62E5805F8080097F8442341F6445307
:102B4800EA5294F81C3315F80A2035F80900029067
:102B58000320019094F81D0300902046FDF7DEFC49
:102B6800002215F80810204601F054FA2046FFF715
:102B78002DFF013006EBC000204490F8401341F6C9
:102B8800305905F80910B0F8423341F63457EB5381
:102B98002046FDF7D9FC014641F62C5805F80800F7
:102BA80094F81C3315F80920E85B02900227019776
:102BB80094F81D0300902046FDF7B0FC002215F89C
:102BC8000810204601F026FA2046FFF7C5FE01301E
:102BD80006EBC006264496F8401341F62F5905F82F
:102BE8000910B6F8423341F6325825F80830204625
:102BF800FDF7AAFC014641F62D56A85594F81C335A
:102C080015F8092035F808000290019794F81D037B
:102C180000902046FDF782FC0022A95D204601F0C5
:102C2800F9F941F63853EF54002342F2CC12AB5075
:102C380041F63C52AB54204603F01CFE00E0022053
:102C480004B0BDE8F08700BF704700BF08B5D0F8F2
:102C58004435DB6941F654529A5841F64E51595A57
:102C6800FFF7F2FF08BD00BF38B50546D0F8443578
:102C7800DC6941F63C53E35C13B1012B1AD03FE009
:102C8800D0F8883513F0010F3AD1D0F8882504F52B
:102C9800EA531A6041F62E53E35C41F63652A25CC1
:102CA80004F5EA51083105F0BDFE012241F63C5316
:102CB800E25425E041F62E53E15C01F09FF901282A
:102CC80002D12846FFF7C2FFD5F8883504F5EA5245
:102CD80012689B1A41F64452A25A934210D3D5F86F
:102CE800882504F5EA531A6041F62E53E35C41F651
:102CF8003652A25C04F5EA510831284605F092FEE6
:102D0800012038BD70B50546D0F84435DC6941F678
:102D18003853E35C052B66D8DFE803F0610E0365E2
:102D28001930012103F090FF064600285CD10122EA
:102D380041F63853E25457E0214603F0B9FF0646FE
:102D4800002851D1042241F63853E2544CE004F6ED
:102D5800041103F0FBFF064610B145E0013300E023
:102D68000023D4F804299342F8D3002242F2C8136E
:102D7800E250052241F63853E25435E042F2C813D6
:102D8800E35803F5107104EB810103EB03135A01B7
:102D980002F512622244896804F026F8064618BB38
:102DA80042F2C812A3580133A350D4F8042993421D
:102DB8001AD3002341F63852A354012142F2CC120F
:102DC800A15042F2C812A350D4F8082941F618536A
:102DD800E250D5F8943502212846984704E0FFF7D9
:102DE80043FF002600E00026304670BD00207047F3
:102DF80070B5D0F84435DC69237B23B1012B00F092
:102E08003E81012070BD0646B4F8F8102368994247
:102E180080F02A81342303FB0143012283F89120A7
:102E280093F89030082B00F22C81DFE813F00900AA
:102E38002A0142009B001300CE002A012A01180132
:102E4800342303FB0143042283F89020D0F888350B
:102E5800C4F8FC30342202FB01F2983222440732D3
:102E6800C9B2304602F0B6FA034638B9B4F8F820C9
:102E7800342101FB0242022182F89010022B09D171
:102E8800B4F8F830342202FB0344052384F8903068
:102E9800012070BD042B40F0F680B4F8F8303422DD
:102EA80002FB0344012084F89000022384F8913047
:102EB80070BDC9B202F01EFA0246F8B9B4F8F8308B
:102EC800342101FB034191F8921031B1342101FB07
:102ED8000341012081F8C10005E0342101FB0341D1
:102EE800002081F8C100342101FB0343032183F84A
:102EF8009010002183F8911083F89210022A22D1B1
:102F0800B4F8F830342202FB034292F89220022AE5
:102F180006D0342202FB0342012182F8C11005E0E9
:102F2800342202FB0342002182F8C110342202FB42
:102F38000344052384F89030012084F8910002238B
:102F480084F8923070BD042A40F09F80B4F8F830BD
:102F5800342202FB0344012084F89000022384F801
:102F6800913070BD342202FB01F2903222440432C7
:102F7800C9B202F0E7F970B9B4F8F830342202FBAC
:102F88000342012082F89000002182F89110034446
:102F9800A4F8F83070BD022809D1B4F8F83034220A
:102FA80002FB0344052384F89030012070BD0428F7
:102FB8006DD1B4F8F830342202FB0344012084F8C0
:102FC8009000022384F8913070BD342202FB01F294
:102FD800983222440432C9B202F064FA024620BB95
:102FE800B4F8F830342101FB034191F89C1006290C
:102FF80001D0022910D1D6F88815D4F8FC00091A96
:1030080042F20F70814207D8342202FB03430222A6
:1030180083F89020012070BD342101FB0341012079
:1030280081F890000344A4F8F830022A09D1B4F8D2
:10303800F830342202FB0344082384F8903001203E
:1030480070BD042A25D1B4F8F830342202FB0344B9
:10305800012084F89000022384F8913070BD01317A
:10306800A4F8F810012070BD0023A4F8F830012559
:103078002573D0F8943502219847284670BD002062
:1030880070BD012070BD012070BD012070BD012000
:1030980070BD012070BD00BF38B5D0F84435DC697B
:1030A800A37B022B02D0032B1BD013BB214602F0BB
:1030B8003FFB032801D100202060E8B925780135BD
:1030C800256000230AE0342202FB0342022182F831
:1030D8009210002182F8C1100133DBB29D42F2D870
:1030E80038BD0021FEF7DEFE28B9E37BA37301207B
:1030F80038BD012038BD012038BD00BF38B50446B1
:10310800D0F84435DD69697939B1FDF717FA69797D
:103118002046FDF72BFA00236B71297941B120462F
:10312800FDF70CFA29792046FDF720FA00232B71C8
:10313800D4F84435D86928B105F0EEFCD4F8443504
:103148000022DA61002038BDF0B585B00446D0F819
:10315800441550230622097903F0B8FFFF2800F030
:1031680088800146204603F0A7FFD4F844554FF461
:10317800807005F0C9FCE861D4F84435DD6994F83D
:103188001F33322202FB034393F8483313F0800FB6
:1031980008D0EB7194F81F3302FB0343B3F84A33AA
:1031A8006B8108E0AB7194F81F33322202FB0343B2
:1031B800B3F84A332B8194F81F33322202FB0343BE
:1031C80093F8503313F0800F08D0EB7194F81F3345
:1031D80002FB0343B3F852336B8108E0AB7194F8F8
:1031E8001F33322202FB0343B3F852332B810026EC
:1031F800A5F8F860A5F8FA602E736E73AE73A97916
:103208002046FDF7A1F96871E9792046FDF79CF998
:103218002871204602F09AFA6822314605F190009A
:1032280005F08DFC94F81C33AA79697928890290F5
:103238000227019794F81D0300902046FDF76EF9C8
:1032480094F81C33EA79297968890290019794F8EF
:103258001D0300902046FDF761F932462979204682
:1032680000F0D8FE32466979204600F0D3FE304699
:1032780000E0022005B0F0BD30B583B00C46D0F8B0
:103288004435DD69342303FB015393F89030062B52
:1032980004D0072B23D0052B63D141E000220092F4
:1032A800134602F091F930B9342303FB0454012387
:1032B80084F890305AE0022807D1342303FB0454E1
:1032C800052384F89030012050E004284BD13423A2
:1032D80003FB0454082384F89030022046E00022BF
:1032E8000092134602F028F930B9342303FB045442
:1032F800012384F8903039E0022807D1342303FBF6
:103308000454052384F8903001202FE004282CD1A0
:10331800342303FB0454082384F89030022025E06A
:10332800342202FB01F298322A44043202F0BAF83D
:10333800034648B9342202FB0452012182F8901056
:10334800022082F8910000E00120022B0ED0042B0D
:103358000CD1342303FB0454082384F89030022052
:1033680004E0012002E0012000E0012003B030BDAC
:10337800D0F84435DA690378DBB20A2B08D1342354
:1033880003FB012191F89100B0FA80F040097047E1
:103398000020704770B4D0F84435DC690378DBB29C
:1033A8000A2B16D1342000FB01F19031631803F188
:1033B80030011E685D689C68D86816605560946026
:1033C800D060103310328B42F3D11B681360002099
:1033D80000E0022070BC7047F0B583B0D0F84445D7
:1033E800E56990F81E4314F0FF0F3BD00478E4B26F
:1033F8000A2C39D1342404FB015494F89040012C50
:1034080034D10C46064606202873342101FB0451AA
:1034180081F89000A5F8FA400899009121463046B5
:1034280002F0D2F8D6F8887512E0D6F88825D21BB3
:1034380042F21073089903FB01F39A4204D896F8F4
:103448001E3313F0FF0F03D101232B7302200EE06C
:1034580021463046FFF710FF0128E6D001232B73E1
:10346800002004E0022002E0022000E0022003B075
:10347800F0BD00BFF0B583B0D0F84445E56990F8D9
:103488001E4314F0FF0F3BD00478E4B20A2C39D164
:10349800342404FB015494F89040012C34D10C4698
:1034A800064607202873342101FB045181F8900057
:1034B800A5F8FA40089900912146304602F03CF8F8
:1034C800D6F8887512E0D6F88825D21B42F2107318
:1034D800089903FB01F39A4204D896F81E3313F0B7
:1034E800FF0F03D101232B7302200EE02146304643
:1034F800FFF7C2FE0128E6D001232B73002004E069
:10350800022002E0022000E0022003B0F0BD00BF6C
:103518000B6883604A688B681A43CB6813430A694F
:1035280043EA0201C26822F47F6323F00F030B43CE
:10353800C3600020704700BF0069C0B2704700BF79
:1035480082B000230193143001440191019B186853
:1035580002B0704738B5514B1B68514CA4FB03436C
:103568005B0A02FB03F2531E002A5ED0446B1A4624
:1035780014F0450FF7D0436B13F0040F03D0042366
:103588008363184638BD436B13F0010F03D0012342
:103598008363184638BD0D460446FFF7CDFFA842A1
:1035A80046D140F2FF53A36300212046FFF7C8FF2E
:1035B80003463C48184000286FD0002B3ADB13F034
:1035C800804F3AD113F0005F39D113F0805F38D1C2
:1035D80013F0006F38D113F0806F38D113F0807F6B
:1035E80038D113F4000F38D113F4800F38D113F405
:1035F800001F38D113F4801F38D113F4802F38D12D
:1036080013F4003F38D113F4803F38D113F4004F3E
:1036180038D113F4804F38D113F4005F38D113F048
:10362800080F38D04FF4000038BD4FF0004038BDC7
:10363800012038BD4FF0007038BD402038BD8020D3
:1036480038BD4FF4807038BD4FF4007038BD4FF46A
:10365800806038BD4FF4006038BD4FF4805038BDED
:103668004FF4005038BD4FF4804038BD4FF400404F
:1036780038BD4FF4003038BD4FF4802038BD4FF4CA
:10368800002038BD4FF4801038BD4FF4001038BD0D
:103698004FF4800038BD4FF4803038BDA4000020BE
:1036A800D34D621008E0FFFD0B6843624B688362EC
:1036B8008A68CB681A430B6913434A691A43C36A79
:1036C80023F0F7031343C3620020704730B587B077
:1036D8000546019110240294402303930023049388
:1036E8004FF48063059301A9FFF712FF41F2883276
:1036F80021462846FFF72EFF07B030BD30B587B00A
:103708000546019111240294402303930023049356
:103718004FF48063059301A9FFF7FAFE41F288325E
:1037280021462846FFF716FF07B030BD30B587B0F1
:103738000546019112240294402303930023049325
:103748004FF48063059301A9FFF7E2FE41F2883246
:1037580021462846FFF7FEFE07B030BD30B587B0DA
:1037680005460191182402944023039300230493EF
:103778004FF48063059301A9FFF7CAFE41F288322E
:1037880021462846FFF7E6FE07B030BD30B587B0C2
:1037980005460191192402944023039300230493BE
:1037A8004FF48063059301A9FFF7B2FE41F2883216
:1037B80021462846FFF7CEFE07B030BD30B587B0AA
:1037C8000546002301930C2402944022039204939B
:1037D8004FF48063059301A9FFF79AFE034A214637
:1037E8002846FFF7B7FE07B030BD00BF00E1F5057A
:1037F80030B587B0054601910D2402944023039308
:10380800002304934FF48063059301A9FFF780FE1A
:1038180041F2883221462846FFF79CFE07B030BDAA
:10382800002800F0A58130B583B00446036813F082
:10383800010F5AD0A94B9B6803F00C03042B0AD044
:10384800A64B9B6803F00C03082B0DD1A34B5B68B8
:1038580013F4800F08D0A14B1B6813F4003F44D029
:103868006368002B41D185E16368B3F5803F05D1DA
:103878009A4A136843F48033136015E0B3F5A02F18
:1038880009D1964B1A6842F480221A601A6842F4E9
:1038980080321A6008E0914B1A6822F480321A606C
:1038A8001A6822F480221A6063687BB101F0C6FCB2
:1038B800054605E001F0C2FC401B642800F25C816B
:1038C800864B1B6813F4003FF4D00EE001F0B6FC01
:1038D800054605E001F0B2FC401B642800F24E8169
:1038E8007E4B1B6813F4003FF4D1236813F0020FDA
:1038F80050D07A4B9B6813F00C0F0AD0774B9B681B
:1039080003F00C03082B16D1744B5B6813F4800F7B
:1039180011D1724B1B6813F0020F03D0E368012B1F
:1039280040F02E816D4A136823F0F803216943EAB9
:10393800C10313602EE0E368D3B10122684B1A601B
:1039480001F07CFC054605E001F078FC401B0228EC
:1039580000F21881614B1B6813F0020FF4D05F4A24
:10396800136823F0F803216943EAC103136011E0E7
:1039780000225B4B1A6001F061FC054605E001F08E
:103988005DFC401B022800F2FF80544B1B6813F0BB
:10399800020FF4D1236813F0080F26D0636993B19E
:1039A8000122504B1A6001F049FC054605E001F080
:1039B80045FC401B022800F2E980484B5B6F13F07E
:1039C800020FF4D011E00022464B1A6001F036FCD9
:1039D800054605E001F032FC401B022800F2D880C1
:1039E8003E4B5B6F13F0020FF4D1236813F0040F02
:1039F80061D000230193394B1A6C42F080521A644B
:103A08001B6C03F080530193019B374A136843F4FE
:103A18008073136001F012FC054605E001F00EFC0E
:103A2800401B022800F2B6802F4B1B6813F4807FDE
:103A3800F4D0A368012B05D1284A136F43F0010382
:103A4800136714E0052B09D1244B1A6F42F00402C6
:103A58001A671A6F42F001021A6708E01F4B1A6FC3
:103A680022F001021A671A6F22F004021A67A3688B
:103A78008BB101F0E3FB054607E001F0DFFB401BDB
:103A880041F28833984200F28780144B1B6F13F081
:103A9800020FF2D00FE001F0D1FB054606E001F07D
:103AA800CDFB401B41F28833984277D80B4B1B6FF4
:103AB80013F0020FF3D1A369002B71D0074A926863
:103AC80002F00C02082A6DD0022B3ED10022074BCF
:103AD8001A6001F0B3FB05460FE000BF0038024052
:103AE80000004742800E4742007000406000474295
:103AF80001F0A4FB401B022856D82F4B1B6813F07B
:103B0800007FF5D1E269236A1343626A43EA8213AC
:103B1800A26A5208013A43EA0243E26A43EA0263AC
:103B2800254A53600122254B1A6001F087FB0446A1
:103B380004E001F083FB001B022837D81E4B1B68EA
:103B480013F0007FF5D0002033E000221B4B1A60F1
:103B580001F074FB044604E001F070FB001B02282E
:103B680026D8154B1B6813F0007FF5D1002020E004
:103B78000120704701201CE003201AE0032018E010
:103B8800012016E0032014E0032012E0032010E0D7
:103B980003200EE003200CE003200AE0032008E0E5
:103BA800002006E0012004E0032002E0032000E0FA
:103BB800032003B030BD00BF003802406000474218
:103BC80038B52F4B9B6803F00C03042B55D0082BFA
:103BD80001D02C4838BD2A4B5A6802F03F025B6876
:103BE80013F4800F20D0264B5B68C3F38813DC00E6
:103BF8000025690141EAD4616001041B61EB0505F8
:103C0800A90141EA9461A001001B61EB0501C018FC
:103C180041F100014B0243EAD053440220461946C1
:103C28000023FCF7DBFA1FE0154B5B68C3F388132E
:103C3800DC000025690141EAD4616001041B61EBE5
:103C48000505A90141EA9461A001001B61EB05018A
:103C5800C01841F100018B0243EA905384022046C8
:103C680019460023FCF7BAFA054B5B68C3F3014316
:103C780001335B00B0FBF3F038BD034838BD00BF2B
:103C8800003802400024F40000127A00002800F0F6
:103C9800978070B50446514B1B6803F00F038B42A5
:103CA80008D2CBB24D4A1370136803F00F03994240
:103CB80040F08880236813F0020F17D013F0040F28
:103CC80004D0474A936843F4E0539360236813F0A1
:103CD800080F04D0424A936843F460439360404815
:103CE800836823F0F002A368134383600D462368BA
:103CF80013F0010F2FD06268012A05D1384B1B68D9
:103D080013F4003F0ED15FE0931E012B05D8344B0E
:103D18001B6813F0007F05D158E0314B1B6813F086
:103D2800020F55D02E498B6823F0030313438B6091
:103D380001F084FA064606E001F080FA801B41F2A1
:103D48008833984246D8264B9B6803F00C03626878
:103D5800B3EB820FF0D1214B1B6803F00F039D4298
:103D680007D2EAB21D4B1A701B6803F00F039D427D
:103D780032D1236813F0040F06D019498B6823F455
:103D8800E052E36813438B60236813F0080F07D0F1
:103D9800134A936823F46043216943EAC10393609B
:103DA800FFF70EFF0E4B9B68C3F303130D4AD35C5A
:103DB800D8400D4B1860002001F008FA002070BDB3
:103DC80001207047012070BD012070BD012070BD29
:103DD800012070BD032070BD012070BD003C024071
:103DE80000380240748D0008A4000020014B1868B8
:103DF800704700BFA40000200368B3F1A04F29D189
:103E080010B586B04FF4C0530193022302930024E7
:103E18000394032304930A23059301A90E4801F090
:103E2800C9F80E4B5A6B42F080025A6300945A6CE0
:103E380042F480425A645B6C03F480430093009B15
:103E4800224621464320FEF721FC4320FEF750FC82
:103E580006B010BD704700BF0000024000380240A5
:103E680008B5D0F8940203F04FFA08BD08B5D0F8A9
:103E7800940203F053FA08BD08B5D0F8940203F091
:103E880063FA08BD704700BF90F88C35012B22D12A
:103E980010B504461148C0F89442C4F890054FF094
:103EA800A0430360082383600323C36000230361E6
:103EB80002228261C361FDF787F818B1B82108486A
:103EC800FEF7B8F80548FDF76BFD0146204603F0FC
:103ED80017FA002010BD0020704700BF340F0020E3
:103EE8005C8D000808B5D0F89005FDF71DFD10B1F0
:103EF800022802D003E0002008BD012008BD0220EE
:103F080008BD00BF08B5D0F89005FDF723FD10B136
:103F1800022802D003E0002008BD012008BD0220CD
:103F280008BD00BF08B5D0F89005FDF73FFD10B1FA
:103F3800022802D003E0002008BD022008BD0120AD
:103F480008BD00BF08B5D0F89005FDF715FD10B104
:103F5800022802D003E0002008BD012008BD02208D
:103F680008BD00BF08B5D0F89005FDF713FD08BDE2
:103F780010B584B0D0F89005BDF8204002949DF8A3
:103F88001C4001949DF818400094FCF7D1FF10B133
:103F9800022802D003E0002002E0012000E0022015
:103FA80004B010BD08B5D0F89005FCF7FBFF10B1C0
:103FB800022802D003E0002008BD012008BD02202D
:103FC80008BD00BF10B584B0D0F890059DF8244016
:103FD8000394BDF820400294079C01949DF8184072
:103FE8000094FDF72FF810B1022802D003E000205A
:103FF80002E0012000E0022004B010BD08B5D0F8AE
:104008009005FDF7BFFC08BD08B5C82001F01CF9F4
:10401800002008BD10B4D0F8900501EB8104E3003E
:104028001C46034493F83B3023B12346034483F8EA
:10403800502005E001EB8101CB00034483F85120B7
:1040480000205DF8044B7047D0F8902501EB810003
:10405800C3001846134493F83B3023B10346134476
:1040680093F85000704701EB8101CB00134493F89B
:104078005100704708B501F0E7F808BD0020704707
:10408800F0B5D0F84435DD690024234638E0322203
:1040980002FB030292F84123012A2FD1322202FBAC
:1040A800030292F84223022A28D1322202FB030299
:1040B80092F8482312F0800F20D0322606FB030620
:1040C800B6F84A63D6B1A70007EB040E4FEA4E06CE
:1040D800B6462E44B271322202FB0301B1F84A23DC
:1040E800328191F83E23F27291F83F23B27291F82F
:1040F8004C23F281012232731444E4B20133DBB25F
:10410800092BC4D90CB90220F0BD0020F0BD00BFB6
:10411800F0B5D0F84435DD69002423463FE032226B
:1041280002FB030292F84123012A36D1322202FB14
:10413800030292F84223022A2FD1322202FB030201
:1041480092F8486316F0800F27D1322202FB03024F
:10415800B2F84A230AB3A70007EB040E4FEA4E024F
:1041680096462A4482F83860322606FB0301B1F8E5
:104178004A63568791F83E6382F83D6091F83F6341
:1041880082F83C6091F84C13A2F84010714629441B
:10419800012281F83E201444E4B20133DBB2092B3A
:1041A800BDD90CB90220F0BD0020F0BD01293BD1DA
:1041B8009378013B052B4FD8DFE803F003050E2C5D
:1041C8002218026048E0B0F87E30591CA0F87E1032
:1041D80000EB830042603FE0B0F88030591CA0F843
:1041E8008010043300EB8300426035E0B0F8823081
:1041F800591CA0F88210083300EB830042602BE0C2
:10420800B0F88430591CA0F88410103300EB8300F8
:10421800426021E0B0F88630591CA0F886100C33B3
:1042280000EB8300426017E0022915D19378012B37
:1042380002D0022B07D00FE0B0F87C300A3300EB35
:10424800C300426008E0B0F87C30591CA0F87C102C
:104258000A3300EBC30082600020704730B4D0F806
:104268004435DC69002310E0184603F1220204EB10
:104278008202926815798D4205D1D3781B0443F4E4
:10428800C063184353E00133DBB29AB2B4F8EE00CE
:104298008242E9D3002313E0184603F1260204EB17
:1042A800820292685579A94202D09579A94205D12E
:1042B800D3781B0443F48063184338E00133DBB23E
:1042C8009AB2B4F8F2008242E6D3002310E018460E
:1042D80003F12A0204EB820292685579A94205D1BA
:1042E800D3781B0443F4A063184320E00133DBB206
:1042F8009AB2B4F8F0008242E9D3002310E01846DD
:1043080003F11E0204EB82029268D579A94205D115
:10431800D3781B0443F44073184308E00133DBB23D
:104328009AB2B4F8EC008242E9D34FF0FF3030BCC7
:10433800704700BF70B50546D0F84435DC690023E6
:1043480013E003F11A0204EB8202906802794179C2
:1043580002EB012240F201218A4204D1C178C379DB
:1043680084F8513107E00133DBB29AB2B4F8EA10AD
:104378008A42E6D300212846FFF770FFC6B2C0F391
:104388000723C0F30741DA1E032A0ED8DFE802F03C
:104398000B05080284F84F6107E084F84D6104E0DA
:1043A80084F84E6101E084F85061032B01D00028A5
:1043B800E1D1002070BD00BF70B50546D0F8443586
:1043C800DC69002313E003F11A0204EB820290680F
:1043D8000279417902EB012240F201118A4204D1AB
:1043E800C178C37984F8093107E00133DBB29AB2A6
:1043F800B4F8EA108A42E6D3002100230CE003F166
:10440800170204EBC2029268D278914202D184F872
:10441800043106E00133DBB29AB2B4F8E800824214
:10442800EDD32846FFF71AFFC6B2C0F30722C0F340
:104438000741D31E032B1BD8DFE803F00B05080246
:1044480084F8076114E084F8056111E084F80661D6
:104458000EE084F80861C3B21E3304EB83039E6840
:104468003379767903EB062340F20316B34205D17C
:10447800032A05D00028D4D1022070BD002070BDC9
:10448800022070BD10B51446222202740122427423
:104498004FF48072428281820322C2822146FDF754
:1044A80049FC10BDF8B5D0F84445E469022902D0AA
:1044B80006290AD015E0236FDD782D020023A4F821
:1044C800903101264FF480770BE0223204EB820210
:1044D8009268D5782D029DF8187047EA0327BDF831
:1044E8001C60212303740123437447828582C6829A
:1044F800324604F5C871FDF71DFCF8BD10B582B051
:10450800D0F84445E469A4F890310223019300925D
:104518000A460621FFF7C6FF02B010BD10B5D0F855
:104528004435DC69012902D0022908D00EE0D4F80C
:104538003831D4F834211344C4F8343106E0D4F8BF
:104548003821D4F834319B1AC4F83431D4F83421E2
:10455800D4F830319A4201D9C4F83431D4F834212E
:10456800D4F82C319A4201D2C4F83431B4F8343139
:1045780094F8A12194F8A011FFF7C0FF012814D0E6
:1045880094F8A131012B09D194F8073184F8A031AE
:1045980094F8093184F8A131002003E0013B84F844
:1045A800A13101200623637010BD012010BD00BF9A
:1045B80038B5BDF81440D0F84455ED69032918D032
:1045C80006290BD002291CD12B6FDA78120200239E
:1045D800A5F8903101244FF4807315E0223205EBE1
:1045E80082029268D27812029DF8101041EA0323E1
:1045F8000AE0D5F88030DA78120201244FF480738B
:1046080002E0002422462346A1210174812141743D
:1046180043828282C482224605F5C871FDF78AFB6F
:1046280038BD00BF38B5BDF81440D0F84455ED6921
:10463800032918D006290BD002291CD12B6FDA7850
:1046480012020023A5F8903101244FF4807315E07D
:10465800223205EB82029268D27812029DF810107D
:1046680041EA03230AE0D5F88030DA7812020124FF
:104678004FF4807302E0002422462346A1210174EE
:104688008221417443828282C482224605F5C87120
:10469800FDF750FB38BD00BF38B5BDF81440D0F861
:1046A8004455ED69032918D006290BD002291CD1DD
:1046B8002B6FDA7812020023A5F8903101244FF409
:1046C800807315E0223205EB82029268D2781202DA
:1046D8009DF8101041EA03230AE0D5F88030DA7813
:1046E800120201244FF4807302E00024224623467C
:1046F800A12101748321417443828282C4822246AB
:1047080005F5C871FDF716FB38BD00BF38B5BDF813
:104718001440D0F84455ED69032918D006290BD068
:1047280002291CD12B6FDA7812020023A5F89031E8
:1047380001244FF4807315E0223205EB820292685F
:10474800D27812029DF8101041EA03230AE0D5F846
:104758008030DA78120201244FF4807302E00024DA
:1047680022462346A1210174842141744382828216
:10477800C482224605F5C871FDF7DCFA38BD00BFD2
:1047880010B582B0D0F84435DC696378043B042B5B
:1047980004D8DFE803F01A2F054C6100012066E019
:1047A8000223019300920A460621FFF701FF012820
:1047B80054D00423637094F8903194F8912103EB5A
:1047C8000223C4F83431012051E0022301930092FE
:1047D8000A460621FFF726FF012841D0052363700A
:1047E80094F8903194F8912103EB0223C4F82C310A
:1047F80001203CE00223019300920A460621FFF7BC
:104808004BFF01282ED00723637094F8903194F859
:10481800912103EB0223C4F83031D4F82C219342C0
:1048280022D24FF47F43C4F8303101201FE0022325
:10483800019300920A460621FFF768FF012815D068
:104848000823637094F8903194F8912103EB0223C4
:10485800C4F8383101200AE0002008E0012006E011
:10486800012004E0012002E0012000E0012002B064
:1048780010BD00BF10B5D0F84435DC6994F8A1210B
:1048880094F8A011FFF77CFF012812D094F8A13109
:10489800012B07D194F8073184F8A031002084F85F
:1048A800A10103E0013B84F8A131012006236370D4
:1048B80010BD012010BD00BF38B50546D0F84435FD
:1048C800DC69E378013B042B54D8DFE803F00320CC
:1048D80053454C00D0F8883513F0010F4CD1D0F86F
:1048E8008835C4F88C3194F88A3194F8862104F517
:1048F800C87104F097F894F8073184F8A03194F857
:10490800093184F8A1310223E370012038BD94F8FD
:104918008A11FFF773FB012806D194F890112846F5
:10492800FFF7FCFD012829D0D5F88835D4F88C216B
:104938009B1A94F88B21934222D3D5F88835C4F872
:104948008C3194F88A3194F8862104F5C871284688
:1049580004F068F8012038BD0121FFF7DFFD88B9B0
:104968000123E37038BD0221FFF7D8FD60B90123A8
:10497800E37038BD012038BD012038BD012038BDA5
:10498800012038BD012038BD012038BD10B5D0F850
:104998004435DC692378013B062B6DD8DFE803F04A
:1049A800046404173E51360094F84231012B0AD1B1
:1049B800002294F84011FDF765FA00285ED104231F
:1049C8002370012010BD04232370012010BD94F82A
:1049D800FA30012B14D1002294F8F810FDF752FA9E
:1049E80000284DD1072323700623637094F80731FC
:1049F80084F8A03194F8093184F8A131012010BD60
:104A08000723237006236370012010BDFFF732FFD0
:104A1800002837D105232370012010BD94F84231B6
:104A2800012B0AD194F8412194F84011FDF72AFA94
:104A380050BB06232370012010BD062323700120DC
:104A480010BD94F8FA30012B0AD194F8F92094F8A3
:104A5800F810FDF717FAC8B902232370012010BD1A
:104A680002232370012010BD0123A370D0F89435D0
:104A780002219847002010BD012010BD012010BD63
:104A8800012010BD012010BD012010BD012010BD66
:104A980038B50546D0F84435DC6994F8431149B176
:104AA800FBF74CFD94F843112846FBF75FFD002304
:104AB80084F8433194F8FB1051B12846FBF73EFDCA
:104AC80094F8FB102846FBF751FD002384F8FB30CF
:104AD80094F88A1151B12846FBF730FD94F88A11F1
:104AE8002846FBF743FD002384F88A31D5F844357E
:104AF800D86928B104F010F8D5F844350022DA61F5
:104B0800002038BD38B50446D0F84435DD69FF23A8
:104B18000122114602F0DAFAFF2830D1022038BD0E
:104B28001946322202FB034292F84123032A23D179
:104B3800322202FB0342B2F84A23EAB1322202FBD4
:104B4800034292F8482312F0800F15D085F884218B
:104B5800322303FB0141B1F84A33A5F8863191F8B5
:104B68003E3385F8883191F84C3385F88B31012331
:104B780085F88931002038BD0133DBB200E000231D
:104B8800092BCDD9022038BD2DE9F04182B0054668
:104B9800D0F84435DF6900F11C040923ADF806306C
:104BA8000020A7F8EE00A7F8EA00A7F8EC00A7F89D
:104BB800E8000646804622E00DF106012046FDF792
:104BC8004DF804464378042B02D0242B09D016E074
:104BD80081784EB2C278284602F0A0FA4FFA80F8DF
:104BE8000DE095F836339E4209DC322303FB085367
:104BF800024693F8421307F16C00FFF7D7FAB5F8AD
:104C08003423BDF806309A42D6D8002002B0BDE859
:104C1800F08100BFF0B585B005460023012211469A
:104C280002F054FAFF2800F0F980D5F844454FF413
:104C3800D27003F069FFE061D5F84435DC694FF4C0
:104C4800D2720021204603F07AFF2846FFF718FAAF
:104C580006462846FFF75CFA022E62D1022800F0C9
:104C6800DF8000273E463B465EE0194603EB8300A3
:104C78004200224492F83E20012A21D103EB83000E
:104C880042002244508F86421AD29E001E4472006F
:104C9800224492F83D6084F8F86092F83C6084F809
:104CA800F96092F8386084F8F460568FA4F8F660DA
:104CB800B2F8402084F8FC20012284F8FA20064645
:104CC80001EB810042002244127B012A26D101EB2C
:104CD800810042002244108987421FD28F0007EBCF
:104CE800010E4FEA4E02224492F80BE084F840E1AC
:104CF80092F80AE084F841E192F806E084F83CE191
:104D08001289A4F83E2139444A002244B2F84020CE
:104D180084F84421012284F8422107460133DBB29A
:104D280002E000273E463B46042B9ED92846FFF763
:104D3800E9FE10B9012384F889312846FFF724FFDA
:104D480094F8FA30012B1FD12846FFF735FB94F869
:104D5800F4102846FBF7F8FB014684F8FB0095F8A9
:104D68001C3394F8F420B4F8F60002900120019066
:104D780095F81D0300902846FBF7D0FB002294F815
:104D8800FB102846FFF746F994F84231012B1FD152
:104D98002846FFF7CFFA94F83C112846FBF7D4FBD6
:104DA800014684F8430195F81C3394F83C21B4F883
:104DB8003E0102900120019095F81D0300902846BD
:104DC800FBF7ACFB002294F843112846FFF722F9C1
:104DD80094F88931012B1CD194F884112846FBF7EB
:104DE800B3FB014684F88A0195F81C3394F88421B2
:104DF800B4F8860102900320019095F81D030090F5
:104E08002846FBF78BFB002294F88A112846FFF707
:104E180001F901232370E370002002E0022000E082
:104E2800022005B0F0BD00BF704700BF704700BF4B
:104E380038B50546D0F84435DC692379012B02D012
:104E4800022B1ED061E0D0F8883513F0010F5CD139
:104E5800D0F88835C4F800310223237194F8FB3068
:104E6800B4F82021D4F8101103F0ECFDB4F8203187
:104E7800C4F81831C4F81C31D4F81031C4F814310E
:104E880043E094F8FB10FFF7B9F801283DD1D5F8B5
:104E98008835D4F800219B1A94F8FC20934234D327
:104EA800D5F88835C4F8003194F88931012B02D13E
:104EB8002846FFF701FDD4F81C21D4F824319A4282
:104EC8001AD894F8FB30B4F82021D4F814112846E5
:104ED80003F0B8FDB4F82031D4F814211A44C4F80A
:104EE8001421D4F818211A44C4F81821D4F81C2124
:104EF8001344C4F81C3108E04FF0FF33C4F81831EC
:104F08000523A3702846FFF791FF012038BD00BF95
:104F180070B50546D0F84435DC69A378013B042B0D
:104F280004D8DFE803F0052515333700012632E001
:104F380094F80431173304EBC303DB68DB791BB93E
:104F48000323A370012626E00223A370012622E092
:104F580094F80431173304EBC303DA68083294F881
:104F6800F410FFF78FFA0646A8B90523A37012E0DC
:104F780004F5867294F8F410FFF784FA064650B9DF
:104F88000523A3702846FFF74FFF04E0FFF750FF03
:104F9800002600E00026304670BD00BF08B5D0F8F6
:104FA8004435DB6993F8FA30012B01D1FFF7B0FFE4
:104FB800012008BDF0B583B00024CDE00123A34053
:104FC8000A6803EA0205AB4240F0C5804A68022A33
:104FD80001D0122A10D1E608083650F826C004F08D
:104FE800070297000F22BA402CEA020E0A69BA405B
:104FF8004EEA020240F82620026867000326BE40F7
:10500800F64302EA060E4A6802F00302BA404EEA84
:10501800020202604A6802F1FF3EBEF1010F03D9A5
:10502800112A01D0122A10D1826806EA020ECA6833
:10503800BA404EEA02028260426822EA03034A68E2
:10504800C2F30012A2401A434260C3681E408B6834
:10505800BB403343C3604B6813F0805F7BD00023B1
:105068000193404B5A6C42F480425A645B6C03F4DF
:1050780080430193019BA608B21C3B4B53F8227056
:1050880004F003039B000F229A4027EA0207374ADD
:1050980090421DD002F5806290421BD002F58062DA
:1050A800904219D002F58062904217D002F58062D2
:1050B800904215D002F58062904213D002F58062CA
:1050C800904211D002F5806290420FD107220EE083
:1050D80000220CE001220AE0022208E0032206E096
:1050E800042204E0052202E0062200E0082202FA77
:1050F80003F33B4302361C4A42F826301C4B1A681D
:10510800EB4302EA03064F6817F4803F01D045EAF3
:105118000206174A1660526803EA02064F6817F437
:10512800003F01D045EA0206114A5660926803EA38
:1051380002064F6817F4801F01D045EA02060C4AA0
:105148009660D26813404E6816F4001F01D045EAF5
:105158000203074AD36001340F2C7FF62FAF03B048
:10516800F0BD00BF00380240003801400000024096
:10517800003C01400AB181617047090481617047B0
:105188000F49D1F8883043F47003C1F888300D4BCB
:105198001A6842F001021A60002098601A6822F02A
:1051A800847222F480321A60074A5A601A6822F41C
:1051B80080221A60D8604FF000638B60704700BF90
:1051C80000ED00E0003802401030002410B504461D
:1051D800074B1B680748A0FB03308009FDF794FACA
:1051E800002221464FF0FF30FDF750FA002010BD95
:1051F800A4000020D34D621008B50B4B1A6842F486
:1052080000721A601A6842F480621A601A6842F4DE
:1052180080721A600320FDF727FA0020FFF7D6FFF7
:10522800FBF7D2FB002008BD003C0240024A13688D
:1052380001331360704700BFCC110020014B186880
:10524800704700BFCC11002030B583B00190FFF744
:10525800F5FF0546019CB4F1FF3F00D00134FFF78C
:10526800EDFF401BA042FAD303B030BD08B5044B94
:1052780003EB8002526852681844007B904708BDCF
:105288002801002008B5084B1B5C53B9064B0122C6
:105298001A5403EB8002526812681844007B904746
:1052A80008BD002008BD00BF2801002038B5044C07
:1052B80004EB80056D68AD682044007BA84738BDC5
:1052C8002801002038B5044C04EB80056D68ED68B2
:1052D8002044007BA84738BD2801002010B5044BA6
:1052E80003EB8004646824691844007BA04710BD60
:1052F8002801002008B5D0F84435DB6993F852201E
:10530800012A02D0022A18D01AE00022DA6583F8AE
:1053180060200A2183F86210C3F86320C3F867206D
:10532800C3F86B20C3F86F2083F86320012083F84B
:105338005000022283F8522008BD00F019FA08BD77
:10534800022008BD38B5D0F84435DC6994F85230ED
:10535800012B02D0022B1FD038E00823E3658023FD
:1053680084F860300A2384F862300023C4F863307C
:10537800C4F86730C4F86B30C4F86F30252384F85C
:105388006330012384F85030022284F8522004F15B
:105398001002C4F88C201AE0154600F0E9F903461B
:1053A800A8B9D4F88C10CA78887842EA00224878DC
:1053B80042EA0042097842EA01622A60D4F88C1075
:1053C800CA79897942EA0122AA8000E001231846B5
:1053D80038BD00BFF8B5D0F84435DC6994F85230D0
:1053E800012B02D0022B26D059E02422E26580232B
:1053F80084F860300A2384F862300023C4F86730E8
:10540800A4F86B30122084F86300490184F8641012
:1054180084F8653084F8663084F8672084F868304A
:10542800012584F85050022384F8523004F1100307
:10543800C4F88C3034E0164600F09AF9054678BB7B
:1054480022220021304603F07AFBD4F88C301B78F6
:1054580003F01F037370D4F88C301B785B0933702A
:10546800D4F88C305B78DB09B370D4F88C3053F8FF
:10547800082F5B68C6F80320C6F80730D4F88C30CC
:1054880053F8107F58689968DB68F760306171617C
:10549800B361D4F88C301B6AC6F81D3000E00225D1
:1054A8002846F8BD38B5D0F84435DC6994F8523050
:1054B800012B02D0022B28D03BE00E20E065802390
:1054C80084F860300A2384F862300023C4F8673017
:1054D800C4F86B30C4F86F30032284F863204901A4
:1054E80084F8641084F8653084F8663084F86700BE
:1054F80084F86830012384F85030022284F852205E
:1055080004F11002C4F88C2014E0154600F030F9BC
:10551800034678B9D4F88C20927802F00F022A70EA
:10552800D4F88C20127B6A70D4F88C20527BAA7035
:1055380000E00223184638BD10B582B00192D0F8B9
:105548004425D26992F85240012C02D0022C35D061
:1055580037E004994902D165002182F860100A20D9
:1055680082F86200C2F86310C2F86710C2F86B10C4
:10557800C2F86F102A2182F863109DF8071082F88C
:1055880065109DF8061082F866109DF8051082F8DF
:1055980067109DF8041082F868109DF8111082F8C1
:1055A8006A109DF8101082F86B10012082F85000E4
:1055B800022182F85210C2F88C3003E000F0D8F8CB
:1055C80000E0022002B010BD10B582B00192D0F800
:1055D8004425D26992F85240012C02D0022C36D0D0
:1055E80038E004994902D165802182F860100A21C7
:1055F80082F862100021C2F86310C2F86710C2F87E
:105608006B10C2F86F10282182F863109DF80710FC
:1056180082F865109DF8061082F866109DF805104E
:1056280082F867109DF8041082F868109DF8111030
:1056380082F86A109DF8101082F86B10012082F829
:105648005000022182F85210C2F88C3003E000F0BA
:105658008FF800E0022002B010BD00BF10B5D0F8EE
:105668004435DC690C4A0023137053709370D3706F
:1056780013710A4A1360238B042B01D90423238353
:10568800064B6361282200F58E7104F10800FCF7CF
:1056980051FF002010BD00BFD0110020D8110020FC
:1056A80010B5D0F84435DC692179FEF75BFC0D288C
:1056B80010D1A26F0D4B9A420ED1E26FA36D9A42A0
:1056C8000CD194F884305BB1012B0BD0022B0BD09A
:1056D800012010BD022010BD022010BD012010BD08
:1056E800002010BD012010BD022010BD55534253AB
:1056F80008B5D0F84435DB6912B1012A04D007E0B7
:10570800D979FCF7CFFB08BD9979FCF7CBFB08BD2D
:10571800022008BD08B521220274FF22427400212C
:1057280041828182C1820A46FCF704FB08BD00BFA2
:1057380008B5A1220274FE224274002242828282AB
:105748000122C282FCF7F6FA08BD00BFD0F8443542
:10575800DB69054A5A65054A9A65012283F8502093
:1057680083F8522000207047555342435040302060
:1057780070B582B00546D0F84435DC6994F85030ED
:10578800013B0A2B00F21581DFE813F00B001A0029
:1057980042004D0078008500B800C300DB00EB0034
:1057A8000B0184F86110022384F8503063790126D4
:1057B80000961F2204F1540103F00EF9334607E165
:1057C8006179FEF71BFC012814D1E36D6BB194F9E4
:1057D8006030002B04DA032384F850300123F7E00B
:1057E800052384F850300123F2E0072384F8503071
:1057F8000123EDE0022803D1012384F85030E7E0CB
:10580800052840F0D8800A2384F850300123DFE0CF
:1058180023796289D4F88C1003F0F4F8042384F80F
:1058280050300123D4E02179FEF7E8FB01281DD18F
:10583800E36D6289934207D9D4F88C101144C4F8F7
:105848008C109B1AE36501E00023E365E36D43B127
:1058580023796289D4F88C10284603F0D3F8012301
:10586800B6E0072384F850300123B1E0052840F062
:10587800A480092384F850300123A9E063792289A0
:10588800D4F88C100126009603F0A6F8062384F8B5
:10589800503033469CE06179FEF7B0FB01281FD1F8
:1058A800E36D2289934207D9D4F88C101144C4F8C7
:1058B8008C109B1AE36501E00023E365E36D53B1A7
:1058C80063792289D4F88C1001240094284603F0C7
:1058D80083F823467CE0072384F85030012377E0DF
:1058E800022804D1052384F85030012370E00528EC
:1058F80065D10A2384F85030012369E023790D2209
:1059080004F1780103F07EF8082384F8503001236D
:105918005EE02179FEF772FB01280BD1012384F8A0
:10592800503084F852302846FFF7BAFE002848D194
:1059380000234DE0052846D1092384F8503001237F
:1059480046E00022FFF7D4FE20B9072384F8503040
:1059580001233DE0042838D10B2384F8503001237B
:1059680036E00122FFF7C4FEA0B961792846FEF7A8
:105978006BFBC0F10102D2B261792846FEF74AFBFF
:10598800002221792846FEF745FB092384F8503088
:1059980001231DE004281AD10B2384F85030012379
:1059A80016E0FFF7B7FE034690B9012284F85020AD
:1059B8000EE001230CE001230AE0012308E00123A3
:1059C80006E0022304E0012302E0012300E00123B2
:1059D800184602B070BD00BF84B010B5044603A8D5
:1059E80080E80E00089B012B18D1A36B23F48033A9
:1059F800A363E36823F4840323F04003E360E368CC
:105A080023F44013E3600F9B012B03D1E36843F4B5
:105A18008013E360204600F093F809E0E36843F060
:105A28004003E360204600F08BF84FF48033A36313
:105A3800069B012B07D1A36843F00603A360A36864
:105A480043F02003A3600020BDE8104004B0704775
:105A5800836843F00103836000207047836823F064
:105A6800010383600020704708B5C36823F0C04372
:105A7800C360012904D1C36843F00053C36004E044
:105A880019B9C36843F08043C3603220FFF7DCFBD9
:105A9800002008BD890141F0200101610023013384
:105AA800054A934205D8026912F0200FF7D1002069
:105AB80070470320704700BF400D030010230361A7
:105AC80000230133054A934205D8026912F0100FEA
